{
  "abi": [
    {
      "anonymous": false,
      "inputs": [
        {
          "indexed": false,
          "internalType": "bytes",
          "name": "reason",
          "type": "bytes"
        }
      ],
      "name": "ErrorNotHandled",
      "type": "event"
    },
    {
      "inputs": [
        {
          "internalType": "address",
          "name": "coin",
          "type": "address"
        }
      ],
      "name": "collectCoin",
      "outputs": [],
      "stateMutability": "nonpayable",
      "type": "function"
    },
    {
      "inputs": [
        {
          "internalType": "address",
          "name": "",
          "type": "address"
        }
      ],
      "name": "collectedCoin",
      "outputs": [
        {
          "internalType": "bool",
          "name": "",
          "type": "bool"
        }
      ],
      "stateMutability": "view",
      "type": "function"
    },
    {
      "inputs": [
        {
          "internalType": "address",
          "name": "coin",
          "type": "address"
        }
      ],
      "name": "isCollected",
      "outputs": [
        {
          "internalType": "bool",
          "name": "",
          "type": "bool"
        }
      ],
      "stateMutability": "view",
      "type": "function"
    }
  ],
  "devdoc": {
    "kind": "dev",
    "methods": {},
    "version": 1
  },
  "evm": {
    "assembly": "    /* \"maybeCoin.sol\":613:1162  contract CoinCollector is ICoinCollector{... */\n  mstore(0x40, 0x80)\n  callvalue\n  dup1\n  iszero\n  tag_1\n  jumpi\n  0x00\n  dup1\n  revert\ntag_1:\n  pop\n  dataSize(sub_0)\n  dup1\n  dataOffset(sub_0)\n  0x00\n  codecopy\n  0x00\n  return\nstop\n\nsub_0: assembly {\n        /* \"maybeCoin.sol\":613:1162  contract CoinCollector is ICoinCollector{... */\n      mstore(0x40, 0x80)\n      callvalue\n      dup1\n      iszero\n      tag_1\n      jumpi\n      0x00\n      dup1\n      revert\n    tag_1:\n      pop\n      jumpi(tag_2, lt(calldatasize, 0x04))\n      shr(0xe0, calldataload(0x00))\n      dup1\n      0x80a53d9d\n      eq\n      tag_3\n      jumpi\n      dup1\n      0x9824aab5\n      eq\n      tag_4\n      jumpi\n      dup1\n      0xe3702d9c\n      eq\n      tag_5\n      jumpi\n    tag_2:\n      0x00\n      dup1\n      revert\n        /* \"maybeCoin.sol\":902:1155  function collectCoin(address coin) override external{... */\n    tag_3:\n      tag_6\n      0x04\n      dup1\n      calldatasize\n      sub\n      dup2\n      add\n      swap1\n      tag_7\n      swap2\n      swap1\n      tag_8\n      jump\t// in\n    tag_7:\n      tag_9\n      jump\t// in\n    tag_6:\n      stop\n        /* \"maybeCoin.sol\":762:890  function isCollected(address coin) override external view returns (bool){... */\n    tag_4:\n      tag_10\n      0x04\n      dup1\n      calldatasize\n      sub\n      dup2\n      add\n      swap1\n      tag_11\n      swap2\n      swap1\n      tag_8\n      jump\t// in\n    tag_11:\n      tag_12\n      jump\t// in\n    tag_10:\n      mload(0x40)\n      tag_13\n      swap2\n      swap1\n      tag_14\n      jump\t// in\n    tag_13:\n      mload(0x40)\n      dup1\n      swap2\n      sub\n      swap1\n      return\n        /* \"maybeCoin.sol\":664:709  mapping(address => bool) public collectedCoin */\n    tag_5:\n      tag_15\n      0x04\n      dup1\n      calldatasize\n      sub\n      dup2\n      add\n      swap1\n      tag_16\n      swap2\n      swap1\n      tag_8\n      jump\t// in\n    tag_16:\n      tag_17\n      jump\t// in\n    tag_15:\n      mload(0x40)\n      tag_18\n      swap2\n      swap1\n      tag_14\n      jump\t// in\n    tag_18:\n      mload(0x40)\n      dup1\n      swap2\n      sub\n      swap1\n      return\n        /* \"maybeCoin.sol\":902:1155  function collectCoin(address coin) override external{... */\n    tag_9:\n        /* \"maybeCoin.sol\":965:971  Coin c */\n      0x00\n        /* \"maybeCoin.sol\":979:983  coin */\n      dup2\n        /* \"maybeCoin.sol\":965:984  Coin c = Coin(coin) */\n      swap1\n      pop\n        /* \"maybeCoin.sol\":999:1000  c */\n      dup1\n        /* \"maybeCoin.sol\":999:1003  c.id */\n      0xffffffffffffffffffffffffffffffffffffffff\n      and\n      0xaf640d0f\n        /* \"maybeCoin.sol\":999:1005  c.id() */\n      mload(0x40)\n      dup2\n      0xffffffff\n      and\n      0xe0\n      shl\n      dup2\n      mstore\n      0x04\n      add\n      0x20\n      mload(0x40)\n      dup1\n      dup4\n      sub\n      dup2\n      dup7\n      dup1\n      extcodesize\n      iszero\n      dup1\n      iszero\n      tag_20\n      jumpi\n      0x00\n      dup1\n      revert\n    tag_20:\n      pop\n      gas\n      staticcall\n      swap3\n      pop\n      pop\n      pop\n      dup1\n      iszero\n      tag_21\n      jumpi\n      pop\n      mload(0x40)\n      returndatasize\n      not(0x1f)\n      0x1f\n      dup3\n      add\n      and\n      dup3\n      add\n      dup1\n      0x40\n      mstore\n      pop\n      dup2\n      add\n      swap1\n      tag_22\n      swap2\n      swap1\n      tag_23\n      jump\t// in\n    tag_22:\n      0x01\n    tag_21:\n        /* \"maybeCoin.sol\":995:1147  try c.id(){... */\n      tag_24\n      jumpi\n      returndatasize\n      dup1\n      0x00\n      dup2\n      eq\n      tag_29\n      jumpi\n      mload(0x40)\n      swap2\n      pop\n      and(add(returndatasize, 0x3f), not(0x1f))\n      dup3\n      add\n      0x40\n      mstore\n      returndatasize\n      dup3\n      mstore\n      returndatasize\n      0x00\n      0x20\n      dup5\n      add\n      returndatacopy\n      jump(tag_28)\n    tag_29:\n      0x60\n      swap2\n      pop\n    tag_28:\n      pop\n        /* \"maybeCoin.sol\":1112:1135  ErrorNotHandled(reason) */\n      0x59505209f9dd2c55cb5070cab446e24b1b16ebd1501e22c0a709da0102527361\n        /* \"maybeCoin.sol\":1128:1134  reason */\n      dup2\n        /* \"maybeCoin.sol\":1112:1135  ErrorNotHandled(reason) */\n      mload(0x40)\n      tag_30\n      swap2\n      swap1\n      tag_31\n      jump\t// in\n    tag_30:\n      mload(0x40)\n      dup1\n      swap2\n      sub\n      swap1\n      log1\n        /* \"maybeCoin.sol\":1067:1147  catch(bytes memory reason){... */\n      pop\n        /* \"maybeCoin.sol\":995:1147  try c.id(){... */\n      jump(tag_32)\n    tag_24:\n      pop\n        /* \"maybeCoin.sol\":1041:1045  true */\n      0x01\n        /* \"maybeCoin.sol\":1019:1032  collectedCoin */\n      0x00\n        /* \"maybeCoin.sol\":1019:1038  collectedCoin[coin] */\n      dup1\n        /* \"maybeCoin.sol\":1033:1037  coin */\n      dup5\n        /* \"maybeCoin.sol\":1019:1038  collectedCoin[coin] */\n      0xffffffffffffffffffffffffffffffffffffffff\n      and\n      0xffffffffffffffffffffffffffffffffffffffff\n      and\n      dup2\n      mstore\n      0x20\n      add\n      swap1\n      dup2\n      mstore\n      0x20\n      add\n      0x00\n      keccak256\n      0x00\n        /* \"maybeCoin.sol\":1019:1045  collectedCoin[coin] = true */\n      0x0100\n      exp\n      dup2\n      sload\n      dup2\n      0xff\n      mul\n      not\n      and\n      swap1\n      dup4\n      iszero\n      iszero\n      mul\n      or\n      swap1\n      sstore\n      pop\n        /* \"maybeCoin.sol\":995:1147  try c.id(){... */\n    tag_32:\n        /* \"maybeCoin.sol\":954:1155  {... */\n      pop\n        /* \"maybeCoin.sol\":902:1155  function collectCoin(address coin) override external{... */\n      pop\n      jump\t// out\n        /* \"maybeCoin.sol\":762:890  function isCollected(address coin) override external view returns (bool){... */\n    tag_12:\n        /* \"maybeCoin.sol\":829:833  bool */\n      0x00\n        /* \"maybeCoin.sol\":862:875  collectedCoin */\n      dup1\n        /* \"maybeCoin.sol\":862:881  collectedCoin[coin] */\n      0x00\n        /* \"maybeCoin.sol\":876:880  coin */\n      dup4\n        /* \"maybeCoin.sol\":862:881  collectedCoin[coin] */\n      0xffffffffffffffffffffffffffffffffffffffff\n      and\n      0xffffffffffffffffffffffffffffffffffffffff\n      and\n      dup2\n      mstore\n      0x20\n      add\n      swap1\n      dup2\n      mstore\n      0x20\n      add\n      0x00\n      keccak256\n      0x00\n      swap1\n      sload\n      swap1\n      0x0100\n      exp\n      swap1\n      div\n      0xff\n      and\n        /* \"maybeCoin.sol\":855:881  return collectedCoin[coin] */\n      swap1\n      pop\n        /* \"maybeCoin.sol\":762:890  function isCollected(address coin) override external view returns (bool){... */\n      swap2\n      swap1\n      pop\n      jump\t// out\n        /* \"maybeCoin.sol\":664:709  mapping(address => bool) public collectedCoin */\n    tag_17:\n      mstore(0x20, 0x00)\n      dup1\n      0x00\n      mstore\n      keccak256(0x00, 0x40)\n      0x00\n      swap2\n      pop\n      sload\n      swap1\n      0x0100\n      exp\n      swap1\n      div\n      0xff\n      and\n      dup2\n      jump\t// out\n        /* \"#utility.yul\":7:146   */\n    tag_35:\n        /* \"#utility.yul\":53:58   */\n      0x00\n        /* \"#utility.yul\":91:97   */\n      dup2\n        /* \"#utility.yul\":78:98   */\n      calldataload\n        /* \"#utility.yul\":69:98   */\n      swap1\n      pop\n        /* \"#utility.yul\":107:140   */\n      tag_37\n        /* \"#utility.yul\":134:139   */\n      dup2\n        /* \"#utility.yul\":107:140   */\n      tag_38\n      jump\t// in\n    tag_37:\n        /* \"#utility.yul\":59:146   */\n      swap3\n      swap2\n      pop\n      pop\n      jump\t// out\n        /* \"#utility.yul\":152:295   */\n    tag_39:\n        /* \"#utility.yul\":209:214   */\n      0x00\n        /* \"#utility.yul\":240:246   */\n      dup2\n        /* \"#utility.yul\":234:247   */\n      mload\n        /* \"#utility.yul\":225:247   */\n      swap1\n      pop\n        /* \"#utility.yul\":256:289   */\n      tag_41\n        /* \"#utility.yul\":283:288   */\n      dup2\n        /* \"#utility.yul\":256:289   */\n      tag_42\n      jump\t// in\n    tag_41:\n        /* \"#utility.yul\":215:295   */\n      swap3\n      swap2\n      pop\n      pop\n      jump\t// out\n        /* \"#utility.yul\":301:630   */\n    tag_8:\n        /* \"#utility.yul\":360:366   */\n      0x00\n        /* \"#utility.yul\":409:411   */\n      0x20\n        /* \"#utility.yul\":397:406   */\n      dup3\n        /* \"#utility.yul\":388:395   */\n      dup5\n        /* \"#utility.yul\":384:407   */\n      sub\n        /* \"#utility.yul\":380:412   */\n      slt\n        /* \"#utility.yul\":377:379   */\n      iszero\n      tag_44\n      jumpi\n        /* \"#utility.yul\":415:494   */\n      tag_45\n      tag_46\n      jump\t// in\n    tag_45:\n        /* \"#utility.yul\":377:379   */\n    tag_44:\n        /* \"#utility.yul\":535:536   */\n      0x00\n        /* \"#utility.yul\":560:613   */\n      tag_47\n        /* \"#utility.yul\":605:612   */\n      dup5\n        /* \"#utility.yul\":596:602   */\n      dup3\n        /* \"#utility.yul\":585:594   */\n      dup6\n        /* \"#utility.yul\":581:603   */\n      add\n        /* \"#utility.yul\":560:613   */\n      tag_35\n      jump\t// in\n    tag_47:\n        /* \"#utility.yul\":550:613   */\n      swap2\n      pop\n        /* \"#utility.yul\":506:623   */\n      pop\n        /* \"#utility.yul\":367:630   */\n      swap3\n      swap2\n      pop\n      pop\n      jump\t// out\n        /* \"#utility.yul\":636:987   */\n    tag_23:\n        /* \"#utility.yul\":706:712   */\n      0x00\n        /* \"#utility.yul\":755:757   */\n      0x20\n        /* \"#utility.yul\":743:752   */\n      dup3\n        /* \"#utility.yul\":734:741   */\n      dup5\n        /* \"#utility.yul\":730:753   */\n      sub\n        /* \"#utility.yul\":726:758   */\n      slt\n        /* \"#utility.yul\":723:725   */\n      iszero\n      tag_49\n      jumpi\n        /* \"#utility.yul\":761:840   */\n      tag_50\n      tag_46\n      jump\t// in\n    tag_50:\n        /* \"#utility.yul\":723:725   */\n    tag_49:\n        /* \"#utility.yul\":881:882   */\n      0x00\n        /* \"#utility.yul\":906:970   */\n      tag_51\n        /* \"#utility.yul\":962:969   */\n      dup5\n        /* \"#utility.yul\":953:959   */\n      dup3\n        /* \"#utility.yul\":942:951   */\n      dup6\n        /* \"#utility.yul\":938:960   */\n      add\n        /* \"#utility.yul\":906:970   */\n      tag_39\n      jump\t// in\n    tag_51:\n        /* \"#utility.yul\":896:970   */\n      swap2\n      pop\n        /* \"#utility.yul\":852:980   */\n      pop\n        /* \"#utility.yul\":713:987   */\n      swap3\n      swap2\n      pop\n      pop\n      jump\t// out\n        /* \"#utility.yul\":993:1102   */\n    tag_52:\n        /* \"#utility.yul\":1074:1095   */\n      tag_54\n        /* \"#utility.yul\":1089:1094   */\n      dup2\n        /* \"#utility.yul\":1074:1095   */\n      tag_55\n      jump\t// in\n    tag_54:\n        /* \"#utility.yul\":1069:1072   */\n      dup3\n        /* \"#utility.yul\":1062:1096   */\n      mstore\n        /* \"#utility.yul\":1052:1102   */\n      pop\n      pop\n      jump\t// out\n        /* \"#utility.yul\":1108:1468   */\n    tag_56:\n        /* \"#utility.yul\":1194:1197   */\n      0x00\n        /* \"#utility.yul\":1222:1260   */\n      tag_58\n        /* \"#utility.yul\":1254:1259   */\n      dup3\n        /* \"#utility.yul\":1222:1260   */\n      tag_59\n      jump\t// in\n    tag_58:\n        /* \"#utility.yul\":1276:1346   */\n      tag_60\n        /* \"#utility.yul\":1339:1345   */\n      dup2\n        /* \"#utility.yul\":1334:1337   */\n      dup6\n        /* \"#utility.yul\":1276:1346   */\n      tag_61\n      jump\t// in\n    tag_60:\n        /* \"#utility.yul\":1269:1346   */\n      swap4\n      pop\n        /* \"#utility.yul\":1355:1407   */\n      tag_62\n        /* \"#utility.yul\":1400:1406   */\n      dup2\n        /* \"#utility.yul\":1395:1398   */\n      dup6\n        /* \"#utility.yul\":1388:1392   */\n      0x20\n        /* \"#utility.yul\":1381:1386   */\n      dup7\n        /* \"#utility.yul\":1377:1393   */\n      add\n        /* \"#utility.yul\":1355:1407   */\n      tag_63\n      jump\t// in\n    tag_62:\n        /* \"#utility.yul\":1432:1461   */\n      tag_64\n        /* \"#utility.yul\":1454:1460   */\n      dup2\n        /* \"#utility.yul\":1432:1461   */\n      tag_65\n      jump\t// in\n    tag_64:\n        /* \"#utility.yul\":1427:1430   */\n      dup5\n        /* \"#utility.yul\":1423:1462   */\n      add\n        /* \"#utility.yul\":1416:1462   */\n      swap2\n      pop\n        /* \"#utility.yul\":1198:1468   */\n      pop\n      swap3\n      swap2\n      pop\n      pop\n      jump\t// out\n        /* \"#utility.yul\":1474:1684   */\n    tag_14:\n        /* \"#utility.yul\":1561:1565   */\n      0x00\n        /* \"#utility.yul\":1599:1601   */\n      0x20\n        /* \"#utility.yul\":1588:1597   */\n      dup3\n        /* \"#utility.yul\":1584:1602   */\n      add\n        /* \"#utility.yul\":1576:1602   */\n      swap1\n      pop\n        /* \"#utility.yul\":1612:1677   */\n      tag_67\n        /* \"#utility.yul\":1674:1675   */\n      0x00\n        /* \"#utility.yul\":1663:1672   */\n      dup4\n        /* \"#utility.yul\":1659:1676   */\n      add\n        /* \"#utility.yul\":1650:1656   */\n      dup5\n        /* \"#utility.yul\":1612:1677   */\n      tag_52\n      jump\t// in\n    tag_67:\n        /* \"#utility.yul\":1566:1684   */\n      swap3\n      swap2\n      pop\n      pop\n      jump\t// out\n        /* \"#utility.yul\":1690:1999   */\n    tag_31:\n        /* \"#utility.yul\":1801:1805   */\n      0x00\n        /* \"#utility.yul\":1839:1841   */\n      0x20\n        /* \"#utility.yul\":1828:1837   */\n      dup3\n        /* \"#utility.yul\":1824:1842   */\n      add\n        /* \"#utility.yul\":1816:1842   */\n      swap1\n      pop\n        /* \"#utility.yul\":1888:1897   */\n      dup2\n        /* \"#utility.yul\":1882:1886   */\n      dup2\n        /* \"#utility.yul\":1878:1898   */\n      sub\n        /* \"#utility.yul\":1874:1875   */\n      0x00\n        /* \"#utility.yul\":1863:1872   */\n      dup4\n        /* \"#utility.yul\":1859:1876   */\n      add\n        /* \"#utility.yul\":1852:1899   */\n      mstore\n        /* \"#utility.yul\":1916:1992   */\n      tag_69\n        /* \"#utility.yul\":1987:1991   */\n      dup2\n        /* \"#utility.yul\":1978:1984   */\n      dup5\n        /* \"#utility.yul\":1916:1992   */\n      tag_56\n      jump\t// in\n    tag_69:\n        /* \"#utility.yul\":1908:1992   */\n      swap1\n      pop\n        /* \"#utility.yul\":1806:1999   */\n      swap3\n      swap2\n      pop\n      pop\n      jump\t// out\n        /* \"#utility.yul\":2086:2184   */\n    tag_59:\n        /* \"#utility.yul\":2137:2143   */\n      0x00\n        /* \"#utility.yul\":2171:2176   */\n      dup2\n        /* \"#utility.yul\":2165:2177   */\n      mload\n        /* \"#utility.yul\":2155:2177   */\n      swap1\n      pop\n        /* \"#utility.yul\":2144:2184   */\n      swap2\n      swap1\n      pop\n      jump\t// out\n        /* \"#utility.yul\":2190:2358   */\n    tag_61:\n        /* \"#utility.yul\":2273:2284   */\n      0x00\n        /* \"#utility.yul\":2307:2313   */\n      dup3\n        /* \"#utility.yul\":2302:2305   */\n      dup3\n        /* \"#utility.yul\":2295:2314   */\n      mstore\n        /* \"#utility.yul\":2347:2351   */\n      0x20\n        /* \"#utility.yul\":2342:2345   */\n      dup3\n        /* \"#utility.yul\":2338:2352   */\n      add\n        /* \"#utility.yul\":2323:2352   */\n      swap1\n      pop\n        /* \"#utility.yul\":2285:2358   */\n      swap3\n      swap2\n      pop\n      pop\n      jump\t// out\n        /* \"#utility.yul\":2364:2460   */\n    tag_74:\n        /* \"#utility.yul\":2401:2408   */\n      0x00\n        /* \"#utility.yul\":2430:2454   */\n      tag_76\n        /* \"#utility.yul\":2448:2453   */\n      dup3\n        /* \"#utility.yul\":2430:2454   */\n      tag_77\n      jump\t// in\n    tag_76:\n        /* \"#utility.yul\":2419:2454   */\n      swap1\n      pop\n        /* \"#utility.yul\":2409:2460   */\n      swap2\n      swap1\n      pop\n      jump\t// out\n        /* \"#utility.yul\":2466:2556   */\n    tag_55:\n        /* \"#utility.yul\":2500:2507   */\n      0x00\n        /* \"#utility.yul\":2543:2548   */\n      dup2\n        /* \"#utility.yul\":2536:2549   */\n      iszero\n        /* \"#utility.yul\":2529:2550   */\n      iszero\n        /* \"#utility.yul\":2518:2550   */\n      swap1\n      pop\n        /* \"#utility.yul\":2508:2556   */\n      swap2\n      swap1\n      pop\n      jump\t// out\n        /* \"#utility.yul\":2562:2639   */\n    tag_79:\n        /* \"#utility.yul\":2599:2606   */\n      0x00\n        /* \"#utility.yul\":2628:2633   */\n      dup2\n        /* \"#utility.yul\":2617:2633   */\n      swap1\n      pop\n        /* \"#utility.yul\":2607:2639   */\n      swap2\n      swap1\n      pop\n      jump\t// out\n        /* \"#utility.yul\":2645:2771   */\n    tag_77:\n        /* \"#utility.yul\":2682:2689   */\n      0x00\n        /* \"#utility.yul\":2722:2764   */\n      0xffffffffffffffffffffffffffffffffffffffff\n        /* \"#utility.yul\":2715:2720   */\n      dup3\n        /* \"#utility.yul\":2711:2765   */\n      and\n        /* \"#utility.yul\":2700:2765   */\n      swap1\n      pop\n        /* \"#utility.yul\":2690:2771   */\n      swap2\n      swap1\n      pop\n      jump\t// out\n        /* \"#utility.yul\":2777:3084   */\n    tag_63:\n        /* \"#utility.yul\":2845:2846   */\n      0x00\n        /* \"#utility.yul\":2855:2968   */\n    tag_83:\n        /* \"#utility.yul\":2869:2875   */\n      dup4\n        /* \"#utility.yul\":2866:2867   */\n      dup2\n        /* \"#utility.yul\":2863:2876   */\n      lt\n        /* \"#utility.yul\":2855:2968   */\n      iszero\n      tag_85\n      jumpi\n        /* \"#utility.yul\":2954:2955   */\n      dup1\n        /* \"#utility.yul\":2949:2952   */\n      dup3\n        /* \"#utility.yul\":2945:2956   */\n      add\n        /* \"#utility.yul\":2939:2957   */\n      mload\n        /* \"#utility.yul\":2935:2936   */\n      dup2\n        /* \"#utility.yul\":2930:2933   */\n      dup5\n        /* \"#utility.yul\":2926:2937   */\n      add\n        /* \"#utility.yul\":2919:2958   */\n      mstore\n        /* \"#utility.yul\":2891:2893   */\n      0x20\n        /* \"#utility.yul\":2888:2889   */\n      dup2\n        /* \"#utility.yul\":2884:2894   */\n      add\n        /* \"#utility.yul\":2879:2894   */\n      swap1\n      pop\n        /* \"#utility.yul\":2855:2968   */\n      jump(tag_83)\n    tag_85:\n        /* \"#utility.yul\":2986:2992   */\n      dup4\n        /* \"#utility.yul\":2983:2984   */\n      dup2\n        /* \"#utility.yul\":2980:2993   */\n      gt\n        /* \"#utility.yul\":2977:2979   */\n      iszero\n      tag_86\n      jumpi\n        /* \"#utility.yul\":3066:3067   */\n      0x00\n        /* \"#utility.yul\":3057:3063   */\n      dup5\n        /* \"#utility.yul\":3052:3055   */\n      dup5\n        /* \"#utility.yul\":3048:3064   */\n      add\n        /* \"#utility.yul\":3041:3068   */\n      mstore\n        /* \"#utility.yul\":2977:2979   */\n    tag_86:\n        /* \"#utility.yul\":2826:3084   */\n      pop\n      pop\n      pop\n      pop\n      jump\t// out\n        /* \"#utility.yul\":3213:3330   */\n    tag_46:\n        /* \"#utility.yul\":3322:3323   */\n      0x00\n        /* \"#utility.yul\":3319:3320   */\n      dup1\n        /* \"#utility.yul\":3312:3324   */\n      revert\n        /* \"#utility.yul\":3336:3438   */\n    tag_65:\n        /* \"#utility.yul\":3377:3383   */\n      0x00\n        /* \"#utility.yul\":3428:3430   */\n      0x1f\n        /* \"#utility.yul\":3424:3431   */\n      not\n        /* \"#utility.yul\":3419:3421   */\n      0x1f\n        /* \"#utility.yul\":3412:3417   */\n      dup4\n        /* \"#utility.yul\":3408:3422   */\n      add\n        /* \"#utility.yul\":3404:3432   */\n      and\n        /* \"#utility.yul\":3394:3432   */\n      swap1\n      pop\n        /* \"#utility.yul\":3384:3438   */\n      swap2\n      swap1\n      pop\n      jump\t// out\n        /* \"#utility.yul\":3444:3566   */\n    tag_38:\n        /* \"#utility.yul\":3517:3541   */\n      tag_92\n        /* \"#utility.yul\":3535:3540   */\n      dup2\n        /* \"#utility.yul\":3517:3541   */\n      tag_74\n      jump\t// in\n    tag_92:\n        /* \"#utility.yul\":3510:3515   */\n      dup2\n        /* \"#utility.yul\":3507:3542   */\n      eq\n        /* \"#utility.yul\":3497:3499   */\n      tag_93\n      jumpi\n        /* \"#utility.yul\":3556:3557   */\n      0x00\n        /* \"#utility.yul\":3553:3554   */\n      dup1\n        /* \"#utility.yul\":3546:3558   */\n      revert\n        /* \"#utility.yul\":3497:3499   */\n    tag_93:\n        /* \"#utility.yul\":3487:3566   */\n      pop\n      jump\t// out\n        /* \"#utility.yul\":3572:3694   */\n    tag_42:\n        /* \"#utility.yul\":3645:3669   */\n      tag_95\n        /* \"#utility.yul\":3663:3668   */\n      dup2\n        /* \"#utility.yul\":3645:3669   */\n      tag_79\n      jump\t// in\n    tag_95:\n        /* \"#utility.yul\":3638:3643   */\n      dup2\n        /* \"#utility.yul\":3635:3670   */\n      eq\n        /* \"#utility.yul\":3625:3627   */\n      tag_96\n      jumpi\n        /* \"#utility.yul\":3684:3685   */\n      0x00\n        /* \"#utility.yul\":3681:3682   */\n      dup1\n        /* \"#utility.yul\":3674:3686   */\n      revert\n        /* \"#utility.yul\":3625:3627   */\n    tag_96:\n        /* \"#utility.yul\":3615:3694   */\n      pop\n      jump\t// out\n\n    auxdata: 0xa2646970667358221220be5caaf9e56cfaee85dd95aeb544a54b1d648fd50ad8887325609ee17b11eda464736f6c63430008060033\n}\n",
    "bytecode": {
      "linkReferences": {},
      "object": "608060405234801561001057600080fd5b5061049d806100206000396000f3fe608060405234801561001057600080fd5b50600436106100415760003560e01c806380a53d9d146100465780639824aab514610062578063e3702d9c14610092575b600080fd5b610060600480360381019061005b91906102ad565b6100c2565b005b61007c600480360381019061007791906102ad565b61020e565b604051610089919061034f565b60405180910390f35b6100ac60048036038101906100a791906102ad565b610263565b6040516100b9919061034f565b60405180910390f35b60008190508073ffffffffffffffffffffffffffffffffffffffff1663af640d0f6040518163ffffffff1660e01b815260040160206040518083038186803b15801561010d57600080fd5b505afa92505050801561013e57506040513d601f19601f8201168201806040525081019061013b91906102da565b60015b6101b1573d806000811461016e576040519150601f19603f3d011682016040523d82523d6000602084013e610173565b606091505b507f59505209f9dd2c55cb5070cab446e24b1b16ebd1501e22c0a709da0102527361816040516101a3919061036a565b60405180910390a15061020a565b5060016000808473ffffffffffffffffffffffffffffffffffffffff1673ffffffffffffffffffffffffffffffffffffffff16815260200190815260200160002060006101000a81548160ff0219169083151502179055505b5050565b60008060008373ffffffffffffffffffffffffffffffffffffffff1673ffffffffffffffffffffffffffffffffffffffff16815260200190815260200160002060009054906101000a900460ff169050919050565b60006020528060005260406000206000915054906101000a900460ff1681565b60008135905061029281610439565b92915050565b6000815190506102a781610450565b92915050565b6000602082840312156102c3576102c2610423565b5b60006102d184828501610283565b91505092915050565b6000602082840312156102f0576102ef610423565b5b60006102fe84828501610298565b91505092915050565b610310816103ba565b82525050565b60006103218261038c565b61032b8185610397565b935061033b8185602086016103f0565b61034481610428565b840191505092915050565b60006020820190506103646000830184610307565b92915050565b600060208201905081810360008301526103848184610316565b905092915050565b600081519050919050565b600082825260208201905092915050565b60006103b3826103d0565b9050919050565b60008115159050919050565b6000819050919050565b600073ffffffffffffffffffffffffffffffffffffffff82169050919050565b60005b8381101561040e5780820151818401526020810190506103f3565b8381111561041d576000848401525b50505050565b600080fd5b6000601f19601f8301169050919050565b610442816103a8565b811461044d57600080fd5b50565b610459816103c6565b811461046457600080fd5b5056fea2646970667358221220be5caaf9e56cfaee85dd95aeb544a54b1d648fd50ad8887325609ee17b11eda464736f6c63430008060033",
      "opcodes": "PUSH1 0x80 PUSH1 0x40 MSTORE CALLVALUE DUP1 ISZERO PUSH2 0x10 JUMPI PUSH1 0x0 DUP1 REVERT JUMPDEST POP PUSH2 0x49D DUP1 PUSH2 0x20 PUSH1 0x0 CODECOPY PUSH1 0x0 RETURN INVALID PUSH1 0x80 PUSH1 0x40 MSTORE CALLVALUE DUP1 ISZERO PUSH2 0x10 JUMPI PUSH1 0x0 DUP1 REVERT JUMPDEST POP PUSH1 0x4 CALLDATASIZE LT PUSH2 0x41 JUMPI PUSH1 0x0 CALLDATALOAD PUSH1 0xE0 SHR DUP1 PUSH4 0x80A53D9D EQ PUSH2 0x46 JUMPI DUP1 PUSH4 0x9824AAB5 EQ PUSH2 0x62 JUMPI DUP1 PUSH4 0xE3702D9C EQ PUSH2 0x92 JUMPI JUMPDEST PUSH1 0x0 DUP1 REVERT JUMPDEST PUSH2 0x60 PUSH1 0x4 DUP1 CALLDATASIZE SUB DUP2 ADD SWAP1 PUSH2 0x5B SWAP2 SWAP1 PUSH2 0x2AD JUMP JUMPDEST PUSH2 0xC2 JUMP JUMPDEST STOP JUMPDEST PUSH2 0x7C PUSH1 0x4 DUP1 CALLDATASIZE SUB DUP2 ADD SWAP1 PUSH2 0x77 SWAP2 SWAP1 PUSH2 0x2AD JUMP JUMPDEST PUSH2 0x20E JUMP JUMPDEST PUSH1 0x40 MLOAD PUSH2 0x89 SWAP2 SWAP1 PUSH2 0x34F JUMP JUMPDEST PUSH1 0x40 MLOAD DUP1 SWAP2 SUB SWAP1 RETURN JUMPDEST PUSH2 0xAC PUSH1 0x4 DUP1 CALLDATASIZE SUB DUP2 ADD SWAP1 PUSH2 0xA7 SWAP2 SWAP1 PUSH2 0x2AD JUMP JUMPDEST PUSH2 0x263 JUMP JUMPDEST PUSH1 0x40 MLOAD PUSH2 0xB9 SWAP2 SWAP1 PUSH2 0x34F JUMP JUMPDEST PUSH1 0x40 MLOAD DUP1 SWAP2 SUB SWAP1 RETURN JUMPDEST PUSH1 0x0 DUP2 SWAP1 POP DUP1 PUSH20 0xFFFFFFFFFFFFFFFFFFFFFFFFFFFFFFFFFFFFFFFF AND PUSH4 0xAF640D0F PUSH1 0x40 MLOAD DUP2 PUSH4 0xFFFFFFFF AND PUSH1 0xE0 SHL DUP2 MSTORE PUSH1 0x4 ADD PUSH1 0x20 PUSH1 0x40 MLOAD DUP1 DUP4 SUB DUP2 DUP7 DUP1 EXTCODESIZE ISZERO DUP1 ISZERO PUSH2 0x10D JUMPI PUSH1 0x0 DUP1 REVERT JUMPDEST POP GAS STATICCALL SWAP3 POP POP POP DUP1 ISZERO PUSH2 0x13E JUMPI POP PUSH1 0x40 MLOAD RETURNDATASIZE PUSH1 0x1F NOT PUSH1 0x1F DUP3 ADD AND DUP3 ADD DUP1 PUSH1 0x40 MSTORE POP DUP2 ADD SWAP1 PUSH2 0x13B SWAP2 SWAP1 PUSH2 0x2DA JUMP JUMPDEST PUSH1 0x1 JUMPDEST PUSH2 0x1B1 JUMPI RETURNDATASIZE DUP1 PUSH1 0x0 DUP2 EQ PUSH2 0x16E JUMPI PUSH1 0x40 MLOAD SWAP2 POP PUSH1 0x1F NOT PUSH1 0x3F RETURNDATASIZE ADD AND DUP3 ADD PUSH1 0x40 MSTORE RETURNDATASIZE DUP3 MSTORE RETURNDATASIZE PUSH1 0x0 PUSH1 0x20 DUP5 ADD RETURNDATACOPY PUSH2 0x173 JUMP JUMPDEST PUSH1 0x60 SWAP2 POP JUMPDEST POP PUSH32 0x59505209F9DD2C55CB5070CAB446E24B1B16EBD1501E22C0A709DA0102527361 DUP2 PUSH1 0x40 MLOAD PUSH2 0x1A3 SWAP2 SWAP1 PUSH2 0x36A JUMP JUMPDEST PUSH1 0x40 MLOAD DUP1 SWAP2 SUB SWAP1 LOG1 POP PUSH2 0x20A JUMP JUMPDEST POP PUSH1 0x1 PUSH1 0x0 DUP1 DUP5 PUSH20 0xFFFFFFFFFFFFFFFFFFFFFFFFFFFFFFFFFFFFFFFF AND PUSH20 0xFFFFFFFFFFFFFFFFFFFFFFFFFFFFFFFFFFFFFFFF AND DUP2 MSTORE PUSH1 0x20 ADD SWAP1 DUP2 MSTORE PUSH1 0x20 ADD PUSH1 0x0 KECCAK256 PUSH1 0x0 PUSH2 0x100 EXP DUP2 SLOAD DUP2 PUSH1 0xFF MUL NOT AND SWAP1 DUP4 ISZERO ISZERO MUL OR SWAP1 SSTORE POP JUMPDEST POP POP JUMP JUMPDEST PUSH1 0x0 DUP1 PUSH1 0x0 DUP4 PUSH20 0xFFFFFFFFFFFFFFFFFFFFFFFFFFFFFFFFFFFFFFFF AND PUSH20 0xFFFFFFFFFFFFFFFFFFFFFFFFFFFFFFFFFFFFFFFF AND DUP2 MSTORE PUSH1 0x20 ADD SWAP1 DUP2 MSTORE PUSH1 0x20 ADD PUSH1 0x0 KECCAK256 PUSH1 0x0 SWAP1 SLOAD SWAP1 PUSH2 0x100 EXP SWAP1 DIV PUSH1 0xFF AND SWAP1 POP SWAP2 SWAP1 POP JUMP JUMPDEST PUSH1 0x0 PUSH1 0x20 MSTORE DUP1 PUSH1 0x0 MSTORE PUSH1 0x40 PUSH1 0x0 KECCAK256 PUSH1 0x0 SWAP2 POP SLOAD SWAP1 PUSH2 0x100 EXP SWAP1 DIV PUSH1 0xFF AND DUP2 JUMP JUMPDEST PUSH1 0x0 DUP2 CALLDATALOAD SWAP1 POP PUSH2 0x292 DUP2 PUSH2 0x439 JUMP JUMPDEST SWAP3 SWAP2 POP POP JUMP JUMPDEST PUSH1 0x0 DUP2 MLOAD SWAP1 POP PUSH2 0x2A7 DUP2 PUSH2 0x450 JUMP JUMPDEST SWAP3 SWAP2 POP POP JUMP JUMPDEST PUSH1 0x0 PUSH1 0x20 DUP3 DUP5 SUB SLT ISZERO PUSH2 0x2C3 JUMPI PUSH2 0x2C2 PUSH2 0x423 JUMP JUMPDEST JUMPDEST PUSH1 0x0 PUSH2 0x2D1 DUP5 DUP3 DUP6 ADD PUSH2 0x283 JUMP JUMPDEST SWAP2 POP POP SWAP3 SWAP2 POP POP JUMP JUMPDEST PUSH1 0x0 PUSH1 0x20 DUP3 DUP5 SUB SLT ISZERO PUSH2 0x2F0 JUMPI PUSH2 0x2EF PUSH2 0x423 JUMP JUMPDEST JUMPDEST PUSH1 0x0 PUSH2 0x2FE DUP5 DUP3 DUP6 ADD PUSH2 0x298 JUMP JUMPDEST SWAP2 POP POP SWAP3 SWAP2 POP POP JUMP JUMPDEST PUSH2 0x310 DUP2 PUSH2 0x3BA JUMP JUMPDEST DUP3 MSTORE POP POP JUMP JUMPDEST PUSH1 0x0 PUSH2 0x321 DUP3 PUSH2 0x38C JUMP JUMPDEST PUSH2 0x32B DUP2 DUP6 PUSH2 0x397 JUMP JUMPDEST SWAP4 POP PUSH2 0x33B DUP2 DUP6 PUSH1 0x20 DUP7 ADD PUSH2 0x3F0 JUMP JUMPDEST PUSH2 0x344 DUP2 PUSH2 0x428 JUMP JUMPDEST DUP5 ADD SWAP2 POP POP SWAP3 SWAP2 POP POP JUMP JUMPDEST PUSH1 0x0 PUSH1 0x20 DUP3 ADD SWAP1 POP PUSH2 0x364 PUSH1 0x0 DUP4 ADD DUP5 PUSH2 0x307 JUMP JUMPDEST SWAP3 SWAP2 POP POP JUMP JUMPDEST PUSH1 0x0 PUSH1 0x20 DUP3 ADD SWAP1 POP DUP2 DUP2 SUB PUSH1 0x0 DUP4 ADD MSTORE PUSH2 0x384 DUP2 DUP5 PUSH2 0x316 JUMP JUMPDEST SWAP1 POP SWAP3 SWAP2 POP POP JUMP JUMPDEST PUSH1 0x0 DUP2 MLOAD SWAP1 POP SWAP2 SWAP1 POP JUMP JUMPDEST PUSH1 0x0 DUP3 DUP3 MSTORE PUSH1 0x20 DUP3 ADD SWAP1 POP SWAP3 SWAP2 POP POP JUMP JUMPDEST PUSH1 0x0 PUSH2 0x3B3 DUP3 PUSH2 0x3D0 JUMP JUMPDEST SWAP1 POP SWAP2 SWAP1 POP JUMP JUMPDEST PUSH1 0x0 DUP2 ISZERO ISZERO SWAP1 POP SWAP2 SWAP1 POP JUMP JUMPDEST PUSH1 0x0 DUP2 SWAP1 POP SWAP2 SWAP1 POP JUMP JUMPDEST PUSH1 0x0 PUSH20 0xFFFFFFFFFFFFFFFFFFFFFFFFFFFFFFFFFFFFFFFF DUP3 AND SWAP1 POP SWAP2 SWAP1 POP JUMP JUMPDEST PUSH1 0x0 JUMPDEST DUP4 DUP2 LT ISZERO PUSH2 0x40E JUMPI DUP1 DUP3 ADD MLOAD DUP2 DUP5 ADD MSTORE PUSH1 0x20 DUP2 ADD SWAP1 POP PUSH2 0x3F3 JUMP JUMPDEST DUP4 DUP2 GT ISZERO PUSH2 0x41D JUMPI PUSH1 0x0 DUP5 DUP5 ADD MSTORE JUMPDEST POP POP POP POP JUMP JUMPDEST PUSH1 0x0 DUP1 REVERT JUMPDEST PUSH1 0x0 PUSH1 0x1F NOT PUSH1 0x1F DUP4 ADD AND SWAP1 POP SWAP2 SWAP1 POP JUMP JUMPDEST PUSH2 0x442 DUP2 PUSH2 0x3A8 JUMP JUMPDEST DUP2 EQ PUSH2 0x44D JUMPI PUSH1 0x0 DUP1 REVERT JUMPDEST POP JUMP JUMPDEST PUSH2 0x459 DUP2 PUSH2 0x3C6 JUMP JUMPDEST DUP2 EQ PUSH2 0x464 JUMPI PUSH1 0x0 DUP1 REVERT JUMPDEST POP JUMP INVALID LOG2 PUSH5 0x6970667358 0x22 SLT KECCAK256 0xBE 0x5C 0xAA 0xF9 0xE5 PUSH13 0xFAEE85DD95AEB544A54B1D648F 0xD5 EXP 0xD8 DUP9 PUSH20 0x25609EE17B11EDA464736F6C6343000806003300 "
    },
    "gasEstimates": {
      "creation": {
        "codeDepositCost": "236200",
        "executionCost": "275",
        "totalCost": "236475"
      },
      "external": {
        "collectCoin(address)": "infinite",
        "collectedCoin(address)": "2867",
        "isCollected(address)": "2883"
      }
    },
    "methodIdentifiers": {
      "collectCoin(address)": "80a53d9d",
      "collectedCoin(address)": "e3702d9c",
      "isCollected(address)": "9824aab5"
    }
  },
  "storageLayout": {
    "storage": [
      {
        "astId": 63,
        "contract": "maybeCoin.sol:CoinCollector",
        "label": "collectedCoin",
        "offset": 0,
        "slot": "0",
        "type": "t_mapping(t_address,t_bool)"
      }
    ],
    "types": {
      "t_address": {
        "encoding": "inplace",
        "label": "address",
        "numberOfBytes": "20"
      },
      "t_bool": {
        "encoding": "inplace",
        "label": "bool",
        "numberOfBytes": "1"
      },
      "t_mapping(t_address,t_bool)": {
        "encoding": "mapping",
        "key": "t_address",
        "label": "mapping(address => bool)",
        "numberOfBytes": "32",
        "value": "t_bool"
      }
    }
  },
  "userdoc": {
    "kind": "user",
    "methods": {},
    "version": 1
  }
}