{
  "abi": [
    {
      "inputs": [
        {
          "internalType": "bytes32",
          "name": "_id",
          "type": "bytes32"
        },
        {
          "internalType": "uint256",
          "name": "_rarity",
          "type": "uint256"
        }
      ],
      "stateMutability": "nonpayable",
      "type": "constructor"
    },
    {
      "inputs": [],
      "name": "id",
      "outputs": [
        {
          "internalType": "bytes32",
          "name": "",
          "type": "bytes32"
        }
      ],
      "stateMutability": "view",
      "type": "function"
    },
    {
      "inputs": [],
      "name": "rarity",
      "outputs": [
        {
          "internalType": "uint256",
          "name": "",
          "type": "uint256"
        }
      ],
      "stateMutability": "view",
      "type": "function"
    }
  ],
  "devdoc": {
    "details": "Store & retrieve value in a variable",
    "kind": "dev",
    "methods": {},
    "title": "Storage",
    "version": 1
  },
  "evm": {
    "assembly": "    /* \"maybeCoin.sol\":141:300  contract Coin {... */\n  mstore(0x40, 0x80)\n    /* \"maybeCoin.sol\":208:298  constructor(bytes32 _id, uint _rarity) {... */\n  callvalue\n  dup1\n  iszero\n  tag_1\n  jumpi\n  0x00\n  dup1\n  revert\ntag_1:\n  pop\n  mload(0x40)\n  sub(codesize, bytecodeSize)\n  dup1\n  bytecodeSize\n  dup4\n  codecopy\n  dup2\n  dup2\n  add\n  0x40\n  mstore\n  dup2\n  add\n  swap1\n  tag_2\n  swap2\n  swap1\n  tag_3\n  jump\t// in\ntag_2:\n    /* \"maybeCoin.sol\":262:265  _id */\n  dup2\n    /* \"maybeCoin.sol\":257:259  id */\n  0x00\n    /* \"maybeCoin.sol\":257:265  id = _id */\n  dup2\n  swap1\n  sstore\n  pop\n    /* \"maybeCoin.sol\":284:291  _rarity */\n  dup1\n    /* \"maybeCoin.sol\":275:281  rarity */\n  0x01\n    /* \"maybeCoin.sol\":275:291  rarity = _rarity */\n  dup2\n  swap1\n  sstore\n  pop\n    /* \"maybeCoin.sol\":208:298  constructor(bytes32 _id, uint _rarity) {... */\n  pop\n  pop\n    /* \"maybeCoin.sol\":141:300  contract Coin {... */\n  jump(tag_6)\n    /* \"#utility.yul\":7:150   */\ntag_8:\n    /* \"#utility.yul\":64:69   */\n  0x00\n    /* \"#utility.yul\":95:101   */\n  dup2\n    /* \"#utility.yul\":89:102   */\n  mload\n    /* \"#utility.yul\":80:102   */\n  swap1\n  pop\n    /* \"#utility.yul\":111:144   */\n  tag_10\n    /* \"#utility.yul\":138:143   */\n  dup2\n    /* \"#utility.yul\":111:144   */\n  tag_11\n  jump\t// in\ntag_10:\n    /* \"#utility.yul\":70:150   */\n  swap3\n  swap2\n  pop\n  pop\n  jump\t// out\n    /* \"#utility.yul\":156:299   */\ntag_12:\n    /* \"#utility.yul\":213:218   */\n  0x00\n    /* \"#utility.yul\":244:250   */\n  dup2\n    /* \"#utility.yul\":238:251   */\n  mload\n    /* \"#utility.yul\":229:251   */\n  swap1\n  pop\n    /* \"#utility.yul\":260:293   */\n  tag_14\n    /* \"#utility.yul\":287:292   */\n  dup2\n    /* \"#utility.yul\":260:293   */\n  tag_15\n  jump\t// in\ntag_14:\n    /* \"#utility.yul\":219:299   */\n  swap3\n  swap2\n  pop\n  pop\n  jump\t// out\n    /* \"#utility.yul\":305:812   */\ntag_3:\n    /* \"#utility.yul\":384:390   */\n  0x00\n    /* \"#utility.yul\":392:398   */\n  dup1\n    /* \"#utility.yul\":441:443   */\n  0x40\n    /* \"#utility.yul\":429:438   */\n  dup4\n    /* \"#utility.yul\":420:427   */\n  dup6\n    /* \"#utility.yul\":416:439   */\n  sub\n    /* \"#utility.yul\":412:444   */\n  slt\n    /* \"#utility.yul\":409:411   */\n  iszero\n  tag_17\n  jumpi\n    /* \"#utility.yul\":447:526   */\n  tag_18\n  tag_19\n  jump\t// in\ntag_18:\n    /* \"#utility.yul\":409:411   */\ntag_17:\n    /* \"#utility.yul\":567:568   */\n  0x00\n    /* \"#utility.yul\":592:656   */\n  tag_20\n    /* \"#utility.yul\":648:655   */\n  dup6\n    /* \"#utility.yul\":639:645   */\n  dup3\n    /* \"#utility.yul\":628:637   */\n  dup7\n    /* \"#utility.yul\":624:646   */\n  add\n    /* \"#utility.yul\":592:656   */\n  tag_8\n  jump\t// in\ntag_20:\n    /* \"#utility.yul\":582:656   */\n  swap3\n  pop\n    /* \"#utility.yul\":538:666   */\n  pop\n    /* \"#utility.yul\":705:707   */\n  0x20\n    /* \"#utility.yul\":731:795   */\n  tag_21\n    /* \"#utility.yul\":787:794   */\n  dup6\n    /* \"#utility.yul\":778:784   */\n  dup3\n    /* \"#utility.yul\":767:776   */\n  dup7\n    /* \"#utility.yul\":763:785   */\n  add\n    /* \"#utility.yul\":731:795   */\n  tag_12\n  jump\t// in\ntag_21:\n    /* \"#utility.yul\":721:795   */\n  swap2\n  pop\n    /* \"#utility.yul\":676:805   */\n  pop\n    /* \"#utility.yul\":399:812   */\n  swap3\n  pop\n  swap3\n  swap1\n  pop\n  jump\t// out\n    /* \"#utility.yul\":899:976   */\ntag_24:\n    /* \"#utility.yul\":936:943   */\n  0x00\n    /* \"#utility.yul\":965:970   */\n  dup2\n    /* \"#utility.yul\":954:970   */\n  swap1\n  pop\n    /* \"#utility.yul\":944:976   */\n  swap2\n  swap1\n  pop\n  jump\t// out\n    /* \"#utility.yul\":982:1059   */\ntag_26:\n    /* \"#utility.yul\":1019:1026   */\n  0x00\n    /* \"#utility.yul\":1048:1053   */\n  dup2\n    /* \"#utility.yul\":1037:1053   */\n  swap1\n  pop\n    /* \"#utility.yul\":1027:1059   */\n  swap2\n  swap1\n  pop\n  jump\t// out\n    /* \"#utility.yul\":1188:1305   */\ntag_19:\n    /* \"#utility.yul\":1297:1298   */\n  0x00\n    /* \"#utility.yul\":1294:1295   */\n  dup1\n    /* \"#utility.yul\":1287:1299   */\n  revert\n    /* \"#utility.yul\":1311:1433   */\ntag_11:\n    /* \"#utility.yul\":1384:1408   */\n  tag_32\n    /* \"#utility.yul\":1402:1407   */\n  dup2\n    /* \"#utility.yul\":1384:1408   */\n  tag_24\n  jump\t// in\ntag_32:\n    /* \"#utility.yul\":1377:1382   */\n  dup2\n    /* \"#utility.yul\":1374:1409   */\n  eq\n    /* \"#utility.yul\":1364:1366   */\n  tag_33\n  jumpi\n    /* \"#utility.yul\":1423:1424   */\n  0x00\n    /* \"#utility.yul\":1420:1421   */\n  dup1\n    /* \"#utility.yul\":1413:1425   */\n  revert\n    /* \"#utility.yul\":1364:1366   */\ntag_33:\n    /* \"#utility.yul\":1354:1433   */\n  pop\n  jump\t// out\n    /* \"#utility.yul\":1439:1561   */\ntag_15:\n    /* \"#utility.yul\":1512:1536   */\n  tag_35\n    /* \"#utility.yul\":1530:1535   */\n  dup2\n    /* \"#utility.yul\":1512:1536   */\n  tag_26\n  jump\t// in\ntag_35:\n    /* \"#utility.yul\":1505:1510   */\n  dup2\n    /* \"#utility.yul\":1502:1537   */\n  eq\n    /* \"#utility.yul\":1492:1494   */\n  tag_36\n  jumpi\n    /* \"#utility.yul\":1551:1552   */\n  0x00\n    /* \"#utility.yul\":1548:1549   */\n  dup1\n    /* \"#utility.yul\":1541:1553   */\n  revert\n    /* \"#utility.yul\":1492:1494   */\ntag_36:\n    /* \"#utility.yul\":1482:1561   */\n  pop\n  jump\t// out\n    /* \"maybeCoin.sol\":141:300  contract Coin {... */\ntag_6:\n  dataSize(sub_0)\n  dup1\n  dataOffset(sub_0)\n  0x00\n  codecopy\n  0x00\n  return\nstop\n\nsub_0: assembly {\n        /* \"maybeCoin.sol\":141:300  contract Coin {... */\n      mstore(0x40, 0x80)\n      callvalue\n      dup1\n      iszero\n      tag_1\n      jumpi\n      0x00\n      dup1\n      revert\n    tag_1:\n      pop\n      jumpi(tag_2, lt(calldatasize, 0x04))\n      shr(0xe0, calldataload(0x00))\n      dup1\n      0xaf640d0f\n      eq\n      tag_3\n      jumpi\n      dup1\n      0xfef21f0f\n      eq\n      tag_4\n      jumpi\n    tag_2:\n      0x00\n      dup1\n      revert\n        /* \"maybeCoin.sol\":161:178  bytes32 public id */\n    tag_3:\n      tag_5\n      tag_6\n      jump\t// in\n    tag_5:\n      mload(0x40)\n      tag_7\n      swap2\n      swap1\n      tag_8\n      jump\t// in\n    tag_7:\n      mload(0x40)\n      dup1\n      swap2\n      sub\n      swap1\n      return\n        /* \"maybeCoin.sol\":184:202  uint public rarity */\n    tag_4:\n      tag_9\n      tag_10\n      jump\t// in\n    tag_9:\n      mload(0x40)\n      tag_11\n      swap2\n      swap1\n      tag_12\n      jump\t// in\n    tag_11:\n      mload(0x40)\n      dup1\n      swap2\n      sub\n      swap1\n      return\n        /* \"maybeCoin.sol\":161:178  bytes32 public id */\n    tag_6:\n      sload(0x00)\n      dup2\n      jump\t// out\n        /* \"maybeCoin.sol\":184:202  uint public rarity */\n    tag_10:\n      sload(0x01)\n      dup2\n      jump\t// out\n        /* \"#utility.yul\":7:125   */\n    tag_14:\n        /* \"#utility.yul\":94:118   */\n      tag_16\n        /* \"#utility.yul\":112:117   */\n      dup2\n        /* \"#utility.yul\":94:118   */\n      tag_17\n      jump\t// in\n    tag_16:\n        /* \"#utility.yul\":89:92   */\n      dup3\n        /* \"#utility.yul\":82:119   */\n      mstore\n        /* \"#utility.yul\":72:125   */\n      pop\n      pop\n      jump\t// out\n        /* \"#utility.yul\":131:249   */\n    tag_18:\n        /* \"#utility.yul\":218:242   */\n      tag_20\n        /* \"#utility.yul\":236:241   */\n      dup2\n        /* \"#utility.yul\":218:242   */\n      tag_21\n      jump\t// in\n    tag_20:\n        /* \"#utility.yul\":213:216   */\n      dup3\n        /* \"#utility.yul\":206:243   */\n      mstore\n        /* \"#utility.yul\":196:249   */\n      pop\n      pop\n      jump\t// out\n        /* \"#utility.yul\":255:477   */\n    tag_8:\n        /* \"#utility.yul\":348:352   */\n      0x00\n        /* \"#utility.yul\":386:388   */\n      0x20\n        /* \"#utility.yul\":375:384   */\n      dup3\n        /* \"#utility.yul\":371:389   */\n      add\n        /* \"#utility.yul\":363:389   */\n      swap1\n      pop\n        /* \"#utility.yul\":399:470   */\n      tag_23\n        /* \"#utility.yul\":467:468   */\n      0x00\n        /* \"#utility.yul\":456:465   */\n      dup4\n        /* \"#utility.yul\":452:469   */\n      add\n        /* \"#utility.yul\":443:449   */\n      dup5\n        /* \"#utility.yul\":399:470   */\n      tag_14\n      jump\t// in\n    tag_23:\n        /* \"#utility.yul\":353:477   */\n      swap3\n      swap2\n      pop\n      pop\n      jump\t// out\n        /* \"#utility.yul\":483:705   */\n    tag_12:\n        /* \"#utility.yul\":576:580   */\n      0x00\n        /* \"#utility.yul\":614:616   */\n      0x20\n        /* \"#utility.yul\":603:612   */\n      dup3\n        /* \"#utility.yul\":599:617   */\n      add\n        /* \"#utility.yul\":591:617   */\n      swap1\n      pop\n        /* \"#utility.yul\":627:698   */\n      tag_25\n        /* \"#utility.yul\":695:696   */\n      0x00\n        /* \"#utility.yul\":684:693   */\n      dup4\n        /* \"#utility.yul\":680:697   */\n      add\n        /* \"#utility.yul\":671:677   */\n      dup5\n        /* \"#utility.yul\":627:698   */\n      tag_18\n      jump\t// in\n    tag_25:\n        /* \"#utility.yul\":581:705   */\n      swap3\n      swap2\n      pop\n      pop\n      jump\t// out\n        /* \"#utility.yul\":711:788   */\n    tag_17:\n        /* \"#utility.yul\":748:755   */\n      0x00\n        /* \"#utility.yul\":777:782   */\n      dup2\n        /* \"#utility.yul\":766:782   */\n      swap1\n      pop\n        /* \"#utility.yul\":756:788   */\n      swap2\n      swap1\n      pop\n      jump\t// out\n        /* \"#utility.yul\":794:871   */\n    tag_21:\n        /* \"#utility.yul\":831:838   */\n      0x00\n        /* \"#utility.yul\":860:865   */\n      dup2\n        /* \"#utility.yul\":849:865   */\n      swap1\n      pop\n        /* \"#utility.yul\":839:871   */\n      swap2\n      swap1\n      pop\n      jump\t// out\n\n    auxdata: 0xa2646970667358221220bc36a3fca92a4f2181a28c26a0208ca0c33315727864002c6b18b0e24871429564736f6c63430008060033\n}\n",
    "bytecode": {
      "linkReferences": {},
      "object": "608060405234801561001057600080fd5b5060405161021438038061021483398181016040528101906100329190610071565b816000819055508060018190555050506100f8565b600081519050610056816100ca565b92915050565b60008151905061006b816100e1565b92915050565b60008060408385031215610088576100876100c5565b5b600061009685828601610047565b92505060206100a78582860161005c565b9150509250929050565b6000819050919050565b6000819050919050565b600080fd5b6100d3816100b1565b81146100de57600080fd5b50565b6100ea816100bb565b81146100f557600080fd5b50565b61010d806101076000396000f3fe6080604052348015600f57600080fd5b506004361060325760003560e01c8063af640d0f146037578063fef21f0f146051575b600080fd5b603d606b565b604051604891906091565b60405180910390f35b60576071565b6040516062919060aa565b60405180910390f35b60005481565b60015481565b607e8160c3565b82525050565b608b8160cd565b82525050565b600060208201905060a460008301846077565b92915050565b600060208201905060bd60008301846084565b92915050565b6000819050919050565b600081905091905056fea2646970667358221220bc36a3fca92a4f2181a28c26a0208ca0c33315727864002c6b18b0e24871429564736f6c63430008060033",
      "opcodes": "PUSH1 0x80 PUSH1 0x40 MSTORE CALLVALUE DUP1 ISZERO PUSH2 0x10 JUMPI PUSH1 0x0 DUP1 REVERT JUMPDEST POP PUSH1 0x40 MLOAD PUSH2 0x214 CODESIZE SUB DUP1 PUSH2 0x214 DUP4 CODECOPY DUP2 DUP2 ADD PUSH1 0x40 MSTORE DUP2 ADD SWAP1 PUSH2 0x32 SWAP2 SWAP1 PUSH2 0x71 JUMP JUMPDEST DUP2 PUSH1 0x0 DUP2 SWAP1 SSTORE POP DUP1 PUSH1 0x1 DUP2 SWAP1 SSTORE POP POP POP PUSH2 0xF8 JUMP JUMPDEST PUSH1 0x0 DUP2 MLOAD SWAP1 POP PUSH2 0x56 DUP2 PUSH2 0xCA JUMP JUMPDEST SWAP3 SWAP2 POP POP JUMP JUMPDEST PUSH1 0x0 DUP2 MLOAD SWAP1 POP PUSH2 0x6B DUP2 PUSH2 0xE1 JUMP JUMPDEST SWAP3 SWAP2 POP POP JUMP JUMPDEST PUSH1 0x0 DUP1 PUSH1 0x40 DUP4 DUP6 SUB SLT ISZERO PUSH2 0x88 JUMPI PUSH2 0x87 PUSH2 0xC5 JUMP JUMPDEST JUMPDEST PUSH1 0x0 PUSH2 0x96 DUP6 DUP3 DUP7 ADD PUSH2 0x47 JUMP JUMPDEST SWAP3 POP POP PUSH1 0x20 PUSH2 0xA7 DUP6 DUP3 DUP7 ADD PUSH2 0x5C JUMP JUMPDEST SWAP2 POP POP SWAP3 POP SWAP3 SWAP1 POP JUMP JUMPDEST PUSH1 0x0 DUP2 SWAP1 POP SWAP2 SWAP1 POP JUMP JUMPDEST PUSH1 0x0 DUP2 SWAP1 POP SWAP2 SWAP1 POP JUMP JUMPDEST PUSH1 0x0 DUP1 REVERT JUMPDEST PUSH2 0xD3 DUP2 PUSH2 0xB1 JUMP JUMPDEST DUP2 EQ PUSH2 0xDE JUMPI PUSH1 0x0 DUP1 REVERT JUMPDEST POP JUMP JUMPDEST PUSH2 0xEA DUP2 PUSH2 0xBB JUMP JUMPDEST DUP2 EQ PUSH2 0xF5 JUMPI PUSH1 0x0 DUP1 REVERT JUMPDEST POP JUMP JUMPDEST PUSH2 0x10D DUP1 PUSH2 0x107 PUSH1 0x0 CODECOPY PUSH1 0x0 RETURN INVALID PUSH1 0x80 PUSH1 0x40 MSTORE CALLVALUE DUP1 ISZERO PUSH1 0xF JUMPI PUSH1 0x0 DUP1 REVERT JUMPDEST POP PUSH1 0x4 CALLDATASIZE LT PUSH1 0x32 JUMPI PUSH1 0x0 CALLDATALOAD PUSH1 0xE0 SHR DUP1 PUSH4 0xAF640D0F EQ PUSH1 0x37 JUMPI DUP1 PUSH4 0xFEF21F0F EQ PUSH1 0x51 JUMPI JUMPDEST PUSH1 0x0 DUP1 REVERT JUMPDEST PUSH1 0x3D PUSH1 0x6B JUMP JUMPDEST PUSH1 0x40 MLOAD PUSH1 0x48 SWAP2 SWAP1 PUSH1 0x91 JUMP JUMPDEST PUSH1 0x40 MLOAD DUP1 SWAP2 SUB SWAP1 RETURN JUMPDEST PUSH1 0x57 PUSH1 0x71 JUMP JUMPDEST PUSH1 0x40 MLOAD PUSH1 0x62 SWAP2 SWAP1 PUSH1 0xAA JUMP JUMPDEST PUSH1 0x40 MLOAD DUP1 SWAP2 SUB SWAP1 RETURN JUMPDEST PUSH1 0x0 SLOAD DUP2 JUMP JUMPDEST PUSH1 0x1 SLOAD DUP2 JUMP JUMPDEST PUSH1 0x7E DUP2 PUSH1 0xC3 JUMP JUMPDEST DUP3 MSTORE POP POP JUMP JUMPDEST PUSH1 0x8B DUP2 PUSH1 0xCD JUMP JUMPDEST DUP3 MSTORE POP POP JUMP JUMPDEST PUSH1 0x0 PUSH1 0x20 DUP3 ADD SWAP1 POP PUSH1 0xA4 PUSH1 0x0 DUP4 ADD DUP5 PUSH1 0x77 JUMP JUMPDEST SWAP3 SWAP2 POP POP JUMP JUMPDEST PUSH1 0x0 PUSH1 0x20 DUP3 ADD SWAP1 POP PUSH1 0xBD PUSH1 0x0 DUP4 ADD DUP5 PUSH1 0x84 JUMP JUMPDEST SWAP3 SWAP2 POP POP JUMP JUMPDEST PUSH1 0x0 DUP2 SWAP1 POP SWAP2 SWAP1 POP JUMP JUMPDEST PUSH1 0x0 DUP2 SWAP1 POP SWAP2 SWAP1 POP JUMP INVALID LOG2 PUSH5 0x6970667358 0x22 SLT KECCAK256 0xBC CALLDATASIZE LOG3 0xFC 0xA9 0x2A 0x4F 0x21 DUP2 LOG2 DUP13 0x26 LOG0 KECCAK256 DUP13 LOG0 0xC3 CALLER ISZERO PUSH19 0x7864002C6B18B0E24871429564736F6C634300 ADDMOD MOD STOP CALLER "
    },
    "gasEstimates": {
      "creation": {
        "codeDepositCost": "53800",
        "executionCost": "infinite",
        "totalCost": "infinite"
      },
      "external": {
        "id()": "2407",
        "rarity()": "2429"
      }
    },
    "methodIdentifiers": {
      "id()": "af640d0f",
      "rarity()": "fef21f0f"
    }
  },
  "storageLayout": {
    "storage": [
      {
        "astId": 4,
        "contract": "maybeCoin.sol:Coin",
        "label": "id",
        "offset": 0,
        "slot": "0",
        "type": "t_bytes32"
      },
      {
        "astId": 6,
        "contract": "maybeCoin.sol:Coin",
        "label": "rarity",
        "offset": 0,
        "slot": "1",
        "type": "t_uint256"
      }
    ],
    "types": {
      "t_bytes32": {
        "encoding": "inplace",
        "label": "bytes32",
        "numberOfBytes": "32"
      },
      "t_uint256": {
        "encoding": "inplace",
        "label": "uint256",
        "numberOfBytes": "32"
      }
    }
  },
  "userdoc": {
    "kind": "user",
    "methods": {},
    "version": 1
  }
}